S018000045464D33324C69676874436F6E74726F6C2E733337C6
S113000000100020210600001D0600001D0600004F
S11300101D0600001D0600001D0600001D06000050
S11300201D0600001D0600001D0600001D06000040
S11300301D0600001D0600001D0600001D06000030
S11300401D060000A50700001D0600001D06000097
S11300501D0600001D0600001D0600001D06000010
S11300601D0600001D0600001D060000CD0700004F
S11300701D0600001D0600001D0600001D060000F0
S11300801D060000512400001D0600001D0600008E
S11300901D0600001D0600001D0600001D060000D0
S11300A01D0600001D0600001D060000A924000016
S11300B01D0600001D060000DD2400001D060000D2
S11300C01D0600001D0600001D0600001D060000A0
S11300D01D0600001D0600001D06000010B5054C9D
S11300E0237833B9044B13B10448AFF300800123E0
S11300F0237010BD7410002000000000682B000065
S113010008B5034B1BB103490348AFF3008008BD96
S11301100000000078100020682B0000154B002B15
S113012008BF134B9D46A3F5803A00218B460F462A
S11301301348144A121A02F01FFA0F4B002B00D076
S113014098470E4B002B00D0984700200021040054
S11301500D000D48002802D00C48AFF3008002F0D7
S1130160E7F92000290002F009F802F0CDF900BFF8
S11301700000080000100020000000000000000043
S113018074100020DC1000200000000000000000BB
S113019010B5294C00222146104601F0EDFA002248
S11301A02146012001F0E8FA00222146022001F054
S11301B0E3FA00222146032001F0DEFA0022214660
S11301C0042001F0D9FA00222146052001F0D4FAD6
S11301D000222146062001F0CFFA00222146072002
S11301E001F0CAFA0022FF21104601F00FFB0022A1
S11301F0FF21012001F00AFB0022FF21022001F06F
S113020005FB0022FF21032001F000FB0022FF2157
S1130210042001F0FBFA0022FF21052001F0F6FA88
S11302200022FF21062001F0F1FA0022FF2107201D
S113023001F0ECFA10BD00BF00F00FF010B5002281
S11302402649072001F098FA254C00222146062071
S113025001F092FA00222146052001F08DFA0022D5
S11302602146042001F088FA00222146032001F0EF
S113027083FA00222146022001F07EFA0022214660
S1130280012001F079FA00224FF02041104601F0DC
S113029073FA00220721084601F0B8FA0022072168
S11302A0062001F0B3FA00220721052001F0AEFA7E
S11302B000220721042001F0A9FA002207210320CB
S11302C001F0A4FA00220721022001F09FFA002283
S11302D00721012001F09AFA10BD00BF00E00F5081
S11302E000E00FF008B5094A136823F00103136016
S11302F0064B5B6E13F0010FFAD10021044800F0A5
S11303001FFD044B0022DA6708BD00BF00A00840AF
S113031000362C0000800C4010B504460121224810
S113032000F00EFD0321214800F026FF4021204863
S113033000F010FC012000F0DFFE01211D4800F058
S1130340FFFC1D4B9A6A00229A621C4801F054F982
S11303500121082001F07CF90121102001F078F935
S11303600121802001F074F901214FF4807001F023
S11303706FF901214FF4007001F06AF934B9FFF705
S113038007FF0D4B5B6E002BFBD110BD4FF44020DB
S113039001F086FA4FF4803001F04CF9084AD36F2B
S11303A043F00803D367EAE7D0433E0002001E008F
S11303B080002A0000362C0000A00840902800008D
S11303C000800C4008B500227821012001F01EFABB
S11303D000227821022001F019FA0022782103205A
S11303E001F014FA00227821042001F00FFA00220F
S11303F07821052001F00AFA00227821062001F074
S113040005FA00227821072001F000FA08BD000057
S11304102DE9F84342F20E73984216DC804610F53B
S11304207A7F14DCDFF8B880404602F069F8804631
S11304304FF00109264B5B6E002BFBD10127244BA7
S11304401F66FFF7BFFF002525E042F20F78B8F1E1
S1130450000FE9DB4FF00009ECE7032D2DD1102349
S11304602BE00134062C12DCEA00521B5100194B1C
S11304700B44234493F8CB1093F8C40046FA04F3D6
S113048013F0010FEDD0012201F0F0F8E9E707EBDA
S113049087035F000135032D14DC98FBF7F20E4946
S11304A081FB0231D317C3EBA10303EB8303590090
S11304B0531A9BB2B9F1000FCFD1084A32F8136036
S11304C00024CFE7024B00221A66BDE8F88300BF80
S11304D000A00840B4250000676666666C2800002A
S11304E019FCFFFF08B50E2809D8DFE800F0350B2A
S11304F00E1114171A1D202326292C2F3200002335
S113050018462BE02023002028E02723032025E0A1
S11305100C23022022E01C2300201FE00C230320D4
S11305201CE00C23042019E01E23002016E02723DE
S1130530052013E02223002010E0232300200DE0F7
S11305400C2307200AE00C23052007E00C230620D7
S113055004E01D23072001E00C23012021B900221F
S1130560194601F083F808BD0122194601F07EF80E
S1130570F9E700002DE9F041074602F005F880464E
S1130580194B5B6E002BFBD1174B01221A66FFF748
S113059055FE002517E020231AE001340D2C10DC51
S11305A0EA00521B9100114B0B441A19917B185D00
S11305B046FA04F313F0010FEFD0012201F056F8CC
S11305C0EBE701370135062D08DC4545E3DA3B78D6
S11305D0203B074A32F813600024DFE7024B002275
S11305E01A66BDE8F08100BF00A00840B4250000F1
S11305F0B427000008B5084B034493F8FC0093F8B3
S1130600013121B90022194601F030F808BD012258
S1130610194601F02BF8F9E7B4250000FEE70000C5
S113062010B500F095F8074B074C1946074A04E04B
S113063010680860043304310432A342F8D3FFF78E
S11306406DFD00BF0010002074100020702B00000E
S113065000487047006CDC02264BDB6A03F47053DD
S1130660B3F5805F3DD0B3F5005F15D0B3F5006FEF
S11306701CD0204BDB6803F4E063B3F5007F27D084
S113068017D9B3F5806F2FD0B3F5A06F1CD0B3F595
S1130690407F1BD0002001E0174B1868154B1B68E6
S11306A0C3F382330133B0FBF3F07047134B186884
S11306B0F4E77BB1B3F5807FECD1114BDB6CB3F184
S11306C0985F13D30F48E9E70F48E7E70F48E5E7DA
S11306D00F48E3E70A4BDB6CB3F1985F08D30D488E
S11306E0DCE74FF40040D9E70B48D7E70B48D5E7E0
S11306F00B48D3E700800C400810002004100020B1
S1130700B081E00F40B56400003FAB01809FD5008D
S1130710C0D8A700804F1200406F4001C0CF6A00CC
S113072040420F0008B5FFF797FF044B5B6803F0E6
S11307300F03D840024B186008BD00BF00800C4076
S113074000100020014B1868704700BF04100020FF
S1130750014A024B9A6070470000000000ED00E07F
S11307604FF4004070474FF47A707047014B18689B
S1130770704700BF0810002010B504467CB194FAFD
S1130780A4F0B0FA80F0C2B20123934024EA030437
S1130790034B53F82230002BF0D09847EEE710BDFE
S11307A09010002008B5084BD3F81001D3F8142199
S11307B0104020F42A5020F02A004004400CC3F8D2
S11307C01C01FFF7D9FF08BD0060004008B5084BC5
S11307D0D3F81001D3F81421104020F4AA4020F0DB
S11307E055000004000CC3F81C01FFF7C5FF08BD49
S11307F000600040036823F001030360704703684E
S113080043F001030360704710B4046824F0080443
S113081044EAC303036042EA0122C26110BC704788
S1130820436823F0F70343EA011111434160704721
S113083038B505460C46FFF7DDFF227863789B0741
S113084043EAC273626843EA0263227A43EA424398
S1130850627A43EA0243A27A43EA0223E27A43EA4F
S11308600213227B43EA82032B60627B23691B020F
S113087043EA02436B60237D1BB92846FFF7BAFFA6
S113088038BD2846FFF7BBFFFAE70000104BDB6CCE
S1130890C3F307434A2B07D0792B05D0482B01D04B
S11308A0002070470B4870470B4A13691B0203F47E
S11308B07C53916901F0F0010B43D269C2F3031236
S11308C01343B3F5017F01D30448704701487047CF
S11308D0B081E00F0048E801D0FF0FE000366E0160
S11308E010B50446FFF7D2FFA0420BD300210A46FD
S11308F00A4B1A600A4A536823F4807343EA0123BB
S1130900536010BDFFF7C2FFB4EB400F02D90221C0
S11309100122EDE701210A46EAE700BF780090438F
S113092000800C40014B1868704700BF780090436A
S1130930184B5B6903F4E063B3F5007F18D00AD960
S1130940B3F5C06F1DD0B3F5E06F18D0B3F5407F99
S113095007D000207047B3B1B3F5807FF9D10E48BA
S113096070470E4BDB6CB3F1985F0ED30C487047A5
S11309700A4BDB6CB3F1985F09D30A4870470A4805
S113098070470A4870470A4870470A4870470A483F
S1130990704700BF00800C40C0D8A700B081E00FB2
S11309A0804F120040B56400406F4001003FAB012E
S11309B0809FD50040420F00C0CF6A00134B5B6894
S11309C003F00703012B03D9042B01D0012300E01A
S11309D000230F4A904208D9A3B105210B4A53685A
S11309E023F007030B43536070470A4A02440A4941
S11309F08A4202D843B10321F0E70BB90021EDE7A5
S1130A000221EBE70421E9E70121E7E700000C40BC
S1130A100048E801FFDB0BFFFF23F40010B5074B90
S1130A20DC6B41F67132DA63FFF712FE0021FFF747
S1130A30C5FF14B1014B0022DA6310BD00000C4065
S1130A4010B5064BDC6B41F67132DA63FFF7B6FF83
S1130A5014B1024B0022DA6310BD00BF00000C4049
S1130A60C0F30313013B0C2B66D8DFE803F00765E2
S1130A70650D656514234E6565651B00304B18686C
S1130A80C0F38230013070472D4B9B6803F00F0395
S1130A900120984070472A4B5B6803F00F03012044
S1130AA098407047264B5868C0F30020431C01202F
S1130AB098407047234B984218D00CD9224B984247
S1130AC01BD0224B984239D11D4B9B6E03F003037C
S1130AD0012098407047A3F5822398422ED1184BE9
S1130AE09B6EC3F30313012098407047144B9B6E15
S1130AF0C3F30323012098407047114B986EC0F351
S1130B000130031D012098407047114B984205D0D5
S1130B1003F50433984208D001207047084B1B6F3B
S1130B2003F00303012098407047054B1B6FC3F388
S1130B30011301209840704701207047012070473D
S1130B4000800C408026160080002A0080062E00BB
S1130B5090071A0010B50C46C0F30313013B0C2B8D
S1130B6017D8DFE803F00716161716162E4AAF1625
S1130B70161622004C1EFFF751FF6C4A136823F42B
S1130B80E03343EA84341460FFF7CCFD0021FFF71F
S1130B9057FF10BDB1FA81F4C4F11F03634A94688E
S1130BA024F00F041C439460F3E7B1FA81F4C4F118
S1130BB01E035E4A546824F4807444EA0324546097
S1130BC0E7E7FFF72BFFFFF7ADFDB0FBF4F0FFF70E
S1130BD087FEB4FA84F4C4F11F03544A546824F021
S1130BE00F041C435460FFF79DFD04460021FFF7EA
S1130BF027FF2046FFF774FECBE74D4B984235D0D4
S1130C001AD94C4B984247D04B4B9842C1D1474BD1
S1130C105B6D13F0010F04D1444B1B6D13F0040FF3
S1130C20FAD1B4FA84F4C4F11F04404A936E23F059
S1130C30030323439366ACE7A3F582239842A8D128
S1130C403A4B5B6D13F0010F04D1384B1B6D13F05D
S1130C50040FFAD1B4FA84F4C4F11F04334A936E36
S1130C6023F0F00343EA0413936692E72F4B5B6D82
S1130C7013F0010F04D12D4B1B6D13F0040FFAD1A7
S1130C80B4FA84F4C4F11F04284A936E23F4706305
S1130C9043EA042393667CE7244B5B6D13F0010F56
S1130CA004D1224B1B6D13F0040FFAD1B4FA84F46F
S1130CB01E4A936E23F44053C4F11B0443EA0433E5
S1130CC0936666E71D4B98421AD003F504339842A5
S1130CD07FF45FAF154B5B6D13F0010F04D1134B21
S1130CE01B6D13F0400FFAD1B4FA84F4C4F11F045D
S1130CF00E4A136F23F0300343EA0414146748E7E1
S1130D000A4B5B6D13F0010F04D1084B1B6D13F0FC
S1130D10400FFAD1B4FA84F4C4F11F04034A136FE8
S1130D2023F003032343136733E700BF00800C4021
S1130D308026160080002A0080062E0090071A00E4
S1130D4038B504460D46C0F30323013B092B2DD8C7
S1130D50DFE803F00518082C2C0F122C2C150022A8
S1130D60134B11E0FFF7DEFCFFF7BAFD0022114B35
S1130D700AE00122104B07E01022104B04E000228D
S1130D800F4B01E000220F4BC4F3043442B10E496F
S1130D90496D11F0010F03D10B49096D0A42FBD1D2
S1130DA003F1047304EBC304A400256038BD00BF41
S1130DB008800C4040800C4058800C4060800C40FF
S1130DC078800C4044800C4000800C4000F00F0000
S1130DD0013806285FD8DFE800F004172C5E5E4176
S1130DE04B00354BDB6A03F47053B3F5805F54D08A
S1130DF0B3F5005F04D0B3F5006F03D0052070474E
S1130E0002207047042070472B4B9B6A03F00303B6
S1130E10022B44D0032B0AD0012B06D0264B9B6A0D
S1130E2013F4803F3DD10120704703207047062012
S1130E307047214B9B6A03F00C03082B33D00C2B17
S1130E400AD0042B06D01C4B9B6A13F4801F2CD1B0
S1130E50012070470320704706207047164B1B681B
S1130E6013F0805323D00BB9012070470920704739
S1130E70114BDB6A03F46033B3F5803F19D0B3F54B
S1130E80003F06D0B3F5004F01D001207047092080
S1130E9070470320704700207047032070470220EA
S1130EA070470A207047022070470A2070470720C5
S1130EB070470220704700BF00800C4010B5044604
S1130EC0FFF784FF1D4B9C4208D01D4B9C420AD067
S1130ED0032830D8DFE800F01B0C0F12194B986A76
S1130EE000F00300F4E7174B986AC0F38100EFE7C2
S1130EF0FFF736FC10BDFFF739FCFBE7FFF712FCE8
S1130F000446FFF70FFD013024FA00F0F2E70B4B23
S1130F109C4202D00A4B9C42ECD10A4B9A6A074B82
S1130F209C4206D0142332FA03F3E3D0FFF71BFCF0
S1130F30E0E71023F7E70020DCE700BF02001E0013
S1130F400300200000800C4008B50748FFF73EFF6F
S1130F50072804D0092805D1FFF77EFB08BDFFF759
S1130F60E7FCFBE70020F9E706000E0008B50A4895
S1130F70FFF72CFF032808D0092809D0022801D044
S1130F80002001E0FFF7F2FB08BDFFF7E9FBFBE7F8
S1130F90FFF762FBF8E700BF0723260038B500F42B
S1130FA07813B3F5D01F00F09280054617D9B3F536
S1130FB0181F00F098802BD9B3F5301F6BD039D9A6
S1130FC0B3F5381F76D0B3F5781F13D1FFF7AAFB1A
S1130FD004462846FFF744FDB4FBF0F039E0B3F5CE
S1130FE0602F7DD008D8B3F5003F3BD0B3F5802FF8
S1130FF030D063B300202CE0B3F5901F39D0B3F5A3
S1131000B01F3FD0B3F5801FF4D1FFF791FC20E06F
S1131010B3F5F01F29D0B3F5001F54D0B3F5E01F8A
S1131020E8D13248FFF74AFF314B1B6FC3F301137A
S1131030D8400EE0B3F5281FDCD12E48FFF73EFF61
S11310402B4B9B6EC3F301330433D84001E0FFF70D
S113105003FB38BDFFF700FB254B9B6803F00F0330
S1131060D840F6E7FFF75EFBF3E72248FFF726FFD9
S1131070EFE72048FFF722FF1D4B9B6EC3F30313DA
S1131080D840E6E71B48FFF719FF194B9B6EC3F3E3
S11310900323D840DDE71748FFF710FF144A936E87
S11310A0C3F30133D840D36F03F007030133B0FB1C
S11310B0F3F0CEE70F48FFF701FF0D4B9B6E03F0F3
S11310C00303D840C5E70948FFF7F8FEC1E707481E
S11310D0FFF7F4FE064B1B6F03F00303D840B8E799
S11310E0FFF732FFB5E7FFF741FFB2E70300200047
S11310F000800C4002001E00064B9B6D13F0080F8D
S113110007D100F00703034AD06F20F0070018430B
S1131110D067704700800C4010B4042826D8DFE85C
S113112000F00F0B1503070002240123184610E0FA
S11311302024102305200CE080244023072008E00D
S11311404FF400744FF48073092002E00824042350
S1131150032049B106490B6242B1064B03449B008C
S11311601B68002BF9D001E0014B1C6210BC7047D6
S113117000800C406001E41010B500F00F04631E01
S1131180062B46D8DFE803F0044646454598A800F8
S1131190023903293DD8DFE801F0022905210020A6
S11311A0042425E0FFF772FB0130FFF799FBFFF7FA
S11311B0C9FA5F4B984207D95E4A136843F060034B
S11311C013600220044613E05A4A136823F06003B4
S11311D043F0200313600220044609E0FFF756FBA6
S11311E00130FFF77DFB0320012401E001200324EB
S11311F001221146FFF790FFFFF710FC4D4B5C6294
S1131200FFF790FA0446FFF76BFB00212046FFF737
S113121017FC10BD01390929FBD801A353F821F0AB
S1131220491200004F1200005F1200001312000068
S1131230131200006F1200001312000013120000BA
S11312401312000083120000002108461BE0012253
S113125011460020FFF760FF0021022013E0012265
S113126011461046FFF758FF002101200BE0FFF75D
S113127059FAFFF735FB304B01221A600021032095
S113128001E001210020022C0BD02A4CA36A23F494
S1131290801323F00C0343EA800343EA0153A3625F
S11312A0B7E7244CA26A22F4803222F003020243FC
S11312B042EA0142A262ACE7072907D00929A8D172
S11312C01C4A136843F080531360A2E7194A136859
S11312D023F0805313609CE7032911D009291DD002
S11312E0022996D1012211460020FFF715FF114B68
S11312F040225A620F4BDB6A13F4803FFAD088E72E
S1131300012211461046FFF707FF0A4B60225A627A
S1131310084BDB6A13F4003FFAD07AE7054B20222E
S11313205A62044BDB6A13F4004FFAD071E700BF32
S11313300048E80100800C401008904331B10122BC
S1131340034B03EB40008000026070470022F7E784
S1131350C103E410EFF3108072B6704700B962B6AF
S11313607047000010B558B31C4AD2F8844004F00A
S1131370010445F60E03C2F88430194B1B6803F0D0
S1131380010003F01001084303F04001084303F097
S11313900401014303F480730B431362114B197866
S11313A0052917D10E4B1B6813F0010F02D10B4B0B
S11313B002221A621CB1094B0022C3F8842010BD1A
S11313C0064BDA6A064B1A601120FFF7FFFC054B47
S11313D01870F4E71120FFF7CFFEE3E700800C401C
S11313E0D0100020D41000207047704730B583B06F
S11313F00446E0B9244A136943F00403136102F577
S1131400712202F5347213691B0203F47C5391694F
S113141001F0F0010B43D269C2F303121343B3F595
S1131420827F0AD3B3F5017F05D0002306E00020B4
S1131430FFF798FFDEE7012300E001231D4663B1B7
S1131440124B1968124A0A400092C3F880205A6865
S113145022F046020192C3F88420FFF7C5FF30BF93
S1131460FFF7C3FF25B1094B009A1A60019A5A602D
S113147014B92CB103B030BD0120FFF773FFF8E7B6
S1131480FFF750F9F6E700BF00ED00E000E100E0EF
S11314909CF1FD0030B4064CC2001518AB001D468B
S11314A0E35823F003031943615130BC704700BF74
S11314B00060004030B4072A22D9A2F10801890053
S11314C007248C408840144D296821EA040108430C
S11314D028601249114489000B60114B13449B008E
S11314E09DF808101960012393400E49C1F81C317E
S11314F00D4B13449B009DF80C201A6030BC7047C0
S11315009500072101FA05F4A840084D296821EA4D
S1131510040108432860DCE70461004040088310AC
S11315206008831000600040800883100061004060
S1131530F0B4144652B173B301258D4000EBC006DC
S1131540B20002F1804202F5C042156107292DD88C
S1131550284EC5002F18BA00324452688F004FF04D
S11315600F0C0CFA07FC22EA0C0204FA07F73A43C0
S11315700544AF003E4472605CB97BBB012303FAAF
S113158001F100EBC000830003F1804303F5C04385
S11315905961F0BC704701258D4000EBC006B200D4
S11315A002F1804202F5C0425561CFE7114FC600F7
S11315B03518AA003A44956801F18042083A92002D
S11315C04FF00F0C0CFA02FC25EA0C0504FA02F2A7
S11315D02A433518AE003744BA60CDE7012303FA35
S11315E001F100EBC000830003F1804303F5C04325
S11315F01961CEE7006000400D4A5368116821F07C
S11316000101116023F4830323F01F0341680B439A
S1131610017A0B43417A1943C3681943038A0B4384
S1131620536003781BB1136843F0010313607047E0
S113163000A00840054B5B6823F48033B0F5803F7D
S113164001D143F48033014A5360704700A008403D
S113165029B9054A936823EA000090607047024B59
S11316609A6810439860704700A0084007285FD824
S1131670DFE800F004101C2834404C581F2904DC17
S11316802E4B0B449B001A6070472D4B0B449B0060
S11316901A6070471F2904DC2A4B0B449B001A6014
S11316A07047294B0B449B001A6070471F2904DCC8
S11316B0264B0B449B001A607047254B0B449B0040
S11316C01A6070471F2904DC1D4B0B449B001A60F1
S11316D07047204B0B449B001A6070471F2904DCA1
S11316E01D4B0B449B001A6070471C4B0B449B0022
S11316F01A6070471F2904DC194B0B449B001A60C5
S11317007047184B0B449B001A6070471F2904DC78
S1131710154B0B449B001A607047144B0B449B0001
S11317201A6070471F2904DD114B0B449B001A609B
S11317307047104B0B449B001A6070470002C510A1
S11317406002C5102002C5108002C5104002C510F9
S1131750A002C510C002C5106006C5108005C510E2
S11317608006C510A005C510A006C510C005C5108B
S1131770E005C510C006C510072844D8DFE800F00E
S1131780040B12192029323B1F4B186C42400A40AB
S113179042401A6470471C4B586C42400A40424015
S11317A05A647047184B986C42400A4042409A640D
S11317B07047154BD86C42400A404240DA64704787
S11317C0114BD3F8CC0042400A404240C3F8CC202D
S11317D070470D4BD3F8D00042400A404240C3F852
S11317E0D0207047084BD3F8D40042400A4042400E
S11317F0C3F8D4207047044BD3F8D80042400A40C1
S11318004240C3F8D820704700A00840072844D8B5
S1131810DFE800F0040B12192029323B1F4B186D2E
S113182042400A4042401A6570471C4B586D424082
S11318300A4042405A657047184B986D42400A402E
S113184042409A657047154BD86D42400A40424069
S1131850DA657047114BD3F8B40042400A40424065
S1131860C3F8B42070470D4BD3F8B80042400A4087
S11318704240C3F8B8207047084BD3F8BC0042403C
S11318800A404240C3F8BC207047044BD3F8C00060
S113189042400A404240C3F8C020704700A00840BC
S11318A0034A536823F4E01318435060704700BFA1
S11318B000A0084070B50D46044610B10123002273
S11318C007E01048FFF76AFB0446F7E701320123FB
S11318D0934005FB03F0B4FBF0F0402801D9062A3D
S11318E0F4D9411E084E756825F47F2525F4E0657A
S11318F0090341EA02222A43726003FB00F0B4FBAD
S1131900F0F070BD80062E0000C00840034A536802
S113191023F4400343EA80505060704700C00840FD
S113192040B101280DD1074A536823F0030319433A
S113193051607047034A536823F0700343EA01116E
S11319405160704700C0084002781B4B1A6003784E
S113195083B1012B0CD0704703EB4302024451784E
S1131960164A1A449200116001330F2BF4D97047C0
S11319700023FAE70023072B1CD870B45D00EA1893
S1131980024451780E4C1C44A40021600D4EF46BAB
S11319900321A94024EA01049178A9402143F16379
S11319A0D178094A1A44920011600133072BE5D912
S11319B070BC7047704700BF2C001843A002C610CB
S11319C0B002C61000C00840F001C61041EA8212FD
S11319D042EA43332C300001014A1350704700BFE0
S11319E000C0084030B40B4C00F12C0504EB051585
S11319F06B6823F47F6323F00F031943696004EBDE
S1131A000014D4F8C8321B0C1B041A43C4F8C822AF
S1131A1030BC704700C00840F8B504460D46037A50
S1131A20234EB26B48000321814022EA0102834025
S1131A301343B363EFB2638A227CE17B3846FFF73A
S1131A40C5FF627BA37B9B0443EA4243E28A1343C0
S1131A50228B134362681343627A43EAC24305F15B
S1131A602C0206EB02125360E369A27A43EA424372
S1131A70227B43EA8243E27A43EAC24306EB051639
S1131A80C6F8C832628BA18A3846FFF7ABFFA2784A
S1131A90084B2B449B001A606278074B2B449B0035
S1131AA01A602278054B2B449B001A60F8BD00BFD6
S1131AB000C008406002C610A002C610C000C610D4
S1131AC038B50546002405E0214605EB4410FFF730
S1131AD0A3FF01340F2CF7D938BD000000F00F002C
S1131AE0014B1863704700BF00C00840064B1B6DD4
S1131AF013F0200FFAD1044B01225A61024B1B6DE3
S1131B0013F0200FFAD1704700C0084008B5054A09
S1131B10136823F003031843106001B908BDFFF7ED
S1131B20E5FFFBE700C0084010B41F4B0022DA6455
S1131B301E4A5A64DA6842F00102DA601A4B1B6DDD
S1131B4013F0200FFAD1184B0A225A6100221A60AE
S1131B509A60DA601A619A619A63DA635A650CE0F2
S1131B60114B02F12C0109015C18002058506060EF
S1131B7003EB0213C3F8C80201320F2AF0D9002282
S1131B8009E0094B02F14000002143F8301003EB57
S1131B90C003596001320F2AF3D9034B1B6D13F0B4
S1131BA0200FFAD110BC704700C00840FFFF7F002F
S1131BB038B50446002976D1207DFFF7A7FE627868
S1131BC0A37843EA8203A2681343E2681343E278EA
S1131BD043EA4223227943EA8223627943EA423385
S1131BE0A27943EA4243E27943EA0243627C43EA4C
S1131BF082532E4D2B6000212078FFF787FF237E30
S1131C00E27E43EA4203627E43EA8203A27E43EA1F
S1131C108213227F43EA0213627F43EA0223A27FF4
S1131C2043EA8223226A134394F8242043EA0253AA
S1131C3094F8252043EA8253A26A1343AB60A38D30
S1131C4094F83B2043EA822394F83C2043EA82330D
S1131C5094F83D2043EA824394F83E2043EA8253B9
S1131C6094F8342043EA420394F8352043EA82038B
S1131C7094F8362043EAC20394F8372043EA021367
S1131C8094F8382043EA421394F8392043EA821343
S1131C9094F83A2043EAC213EB60206BFFF71EFF6F
S1131CA0237C2B6138BDFFF73FFF85E700C0084068
S1131CB000F10470C000053080000123036000239C
S1131CC00360704730B4046814F003050AD0C36A93
S1131CD013F0010F03D1036B13F0010FFBD124F0B8
S1131CE003030360C36A13F0010F03D1036B13F002
S1131CF0040FFBD14161C36A13F0010F03D1036BDD
S1131D0013F0060FFBD102234360C36A13F0010FE3
S1131D1003D1036B13F0020FFBD101234360914203
S1131D2012D0C36A13F0010F03D1036B13F0020F37
S1131D30FBD14261C36A13F0010F03D1036B13F0AB
S1131D40060FFBD10223436045B1C36A13F0010FB0
S1131D5003D1036B13F0030FFBD1046030BC704755
S1131D60036823F003031943C36A13F0010F03D17B
S1131D70036B13F0010FFBD10160704711B101290E
S1131D8008D0704700F104703C30C000043080007B
S1131D900260704700F104703C30C0000A308000DB
S1131DA0026070472DE9F04104460D4600F14048B9
S1131DB0A8F506284FEA9828C26B22F4737222F021
S1131DC00302CB7C097D43EA81131343C3632B7B5A
S1131DD003B108236A7B0AB143F00403AA7B0AB166
S1131DE043F01003EA7B0AB143F480732A7C0AB1FE
S1131DF043F400736F7C43EA8723AF7C8FB3022FD5
S1131E0000D9002743EA873704F10476F600053643
S1131E10B6000123336000214046FFF78FFA2B7888
S1131E209A1E012A1FD81F43E36A13F0010F03D13E
S1131E30236B13F0010FFBD120232360E36A13F01B
S1131E40010F03D1236B13F0010FFBD10121404695
S1131E50FFF774FAAB686361022363602760BDE82F
S1131E60F0810327CEE7236813F0030F0AD047F06D
S1131E7020032360E36A13F0010F03D1236B13F0F3
S1131E80010FFBD100233360AA6869682046FFF77D
S1131E9019FF2B78002BE2D0E26A12F0010F03D174
S1131EA0226B12F0010FFBD13B432360D7E7C36AD7
S1131EB013F0010F03D1036B13F0040FFBD1416145
S1131EC0C36A13F0010F03D1036B13F0060FFBD1A8
S1131ED00223436070470000074B134021B10430D4
S1131EE0064A42F82030704743F080530430034AD6
S1131EF042F82030704700BF07003F0000C00C408C
S1131F0008B50A430021FFF7E7FF08BD10B1012817
S1131F1003D07047024B19607047024BFBE700BFC8
S1131F20080008400C0008404FF0864318607047D2
S1131F3003785BB1012342780AB143F0020382784B
S1131F400AB143F00403024A136070470023F2E726
S1131F50000008400B4A53699B0003F03C031169DD
S1131F60C1F381110B438370136903F03F03437082
S1131F70936903F0F003D269C2F3031213430370AD
S1131F80704700BFD0FF0FE038B5FEF7CBFB05214B
S1131F901120FFF7F1F803211B48FFF7EDF80121A9
S1131FA01A48FFF7E9F801211948FEF7C9FE012193
S1131FB01848FEF7C5FE01211748FEF7C1FE0121AE
S1131FC01648FEF7BDFE01211548FEF7B9FE0121B2
S1131FD01448FEF7B5FE01211348FEF7B1FE134C79
S1131FE001212046FEF7ACFE114D01212846FEF7E3
S1131FF0A7FE01212846FEF7ADFD4FF4004120461F
S1132000FEF7A8FD38BD00BF02001E00030020003B
S11320104081040000D2040000362C000092040029
S113202000F20400D0433E00000A1E008016120095
S113203080062E0000B583B000210320FFF72AFAA2
S113204000210220FFF726FA0023042206210320A0
S1132050FFF76EFA00231A4606210220FFF768FAFA
S11320600023012209211046FFF762FA01200190A2
S11320700090002309221146FFF71CFA034B4FF48A
S113208000621A6003B05DF804FB00BF00E100E0E9
S113209010B5084C08492046FEF7CAFB00231A462F
S11320A019462046FEF7B0FB00220A212046FEF71F
S11320B0B7FB10BD00100040A428000008B50121A2
S11320C00948FFF775FD0948FFF7FAFC0848FFF7D0
S11320D03BFC14210020FFF7EDFB00210846FFF72D
S11320E01FFCFFF703FD08BDF02A0000F0280000E4
S11320F0BC28000008B5054B01229A6006224FF463
S113210064110020FFF7FCFE08BD00BF00C00C40B6
S113211010B5094C09492046FFF744FE012200216D
S11321202046FFF72BFE01212046FFF719FE636AC4
S113213043F00203636210BD00600840302B0000CE
S113214008B50B48FFF7F4FE0A48FEF727FF00EB3B
S113215040010020FFF7DAFE074B4FF0FF329A618F
S1132160DA6942F00202DA610120FFF7DDFE08BD00
S1132170482B0000801612000000084010B582B001
S1132180A64B01221A64A64BDC6C240E01A8FFF7AF
S1132190E1FE0F2C0AD99DF80430022B06D9A14A7E
S11321A0136823F0500343F010031360FFF7D2F8D1
S11321B00446FFF7E9FEFFF73DFFFFF769FFFFF76E
S11321C099FFFFF7A5FFFFF779FFFFF7B9FF00209D
S11321D0FEF7A2F8944B4FF080421A604FF0006271
S11321E01A602046FFF7BAF875E001218F48FEF720
S11321F0A7FD0120FFF798FE0020FEF78DF8FDF7FC
S1132200C7FF01210020FEF7F5F901210020FEF7A8
S113221069F98748FEF7AEF9864B01221A705AE035
S113222001218248FEF78CFD0120FFF77DFE00208E
S1132230FEF772F8FDF7ACFF01210020FEF7DAF992
S113224001210020FEF74EF97B48FEF793F9794B04
S113225001221A703FE0744B4FF400321A600020E0
S1132260FFF762FE0120FFF75FFE724B02221A7035
S113227031E0704B02221A70704B1878FEF7C8F8E0
S11322806F4B1B786BB16B4B03221A7000246C4BA1
S11322901C702046FFF748FE21466448FEF750FDB7
S11322A019E00120FFF7A2F815E0FEF71BF8614BD7
S11322B004221A700FE00120FFF798F80BE05D4B41
S11322C0FF221A7007E05F4B1B78DBB2012B1BD097
S11322D0584BFF221A705B4B1B78002BF3D1554BE4
S11322E01B785BB2052BEAD801A252F823F000BF99
S11322F0212200005722000073220000AB220000BC
S1132300B7220000EB2100004A4B1B785BB2052B7F
S11323107FD8DFE803F01E3947637A03012143487D
S1132320FEF70EFD0120FFF7FFFD0020FDF7F4FF8F
S1132330FDF72EFF01210020FEF75CF901210020AA
S1132340FEF7D0F84048FEF715F93A4B01221A700F
S1132350C1E701213548FEF7F3FC0120FFF7E4FD56
S11323600020FDF7D9FFFDF713FF01210020FEF740
S113237041F901210020FEF7B5F82F48FEF7FAF8DD
S11323802C4B01221A70A6E7274B4FF400321A6037
S11323900020FFF7C9FD0120FFF7C6FD254B0222EF
S11323A01A7098E7234B02221A70244B1878FEF710
S11323B02FF8234B1B786BB11E4B03221A70002499
S11323C01F4B1C702046FFF7AFFD21461748FEF750
S11323D0B7FC80E70120FFF709F87CE7FDF782FFEF
S11323E0114B4FF40032C3F88020BFF34F8FBFF37B
S11323F06F8F164C2046FFF75BFC05212046FFF744
S113240056FD0C4B04221A7065E70120FEF7EEFF1F
S113241061E7084BFF221A705DE700BF00000C4023
S1132420B081E00FC0800C4000E100E08016120093
S11324304C2B0000D6100020542B0000D710002095
S1132440D8100020D51000205C2B0000006008404C
S1132450114AD36C126C134013F0400F02D00E4B90
S113246040225A640D4B1B7843B10C4B1B78DBB2F2
S1132470012B0CD00A4BFF221A707047094A1378BB
S11324800133DBB21370064B00221A707047044B01
S113249001221A70704700BF00C00840D510002008
S11324A0D6100020D7100020084B02221A62084BD5
S11324B01B78DBB2012B00D07047064A1378053332
S11324C0DBB21370044B00221A70F5E70060084079
S11324D0D5100020D7100020D6100020064AD3695A
S11324E01269134013F0020F05D0034B02229A61C4
S11324F0024B01221A70704700000840D8100020D7
S11325000028B8BF4042704708B5074B044613B1D2
S11325100021AFF30080054B1868836A03B1984724
S1132520204600F039F800BF00000000642B0000D2
S113253070B500250C4E0D4CA41BA410A54209D166
S113254000F02CF800250A4E0A4CA41BA410A54246
S113255005D170BD56F8253098470135EEE756F899
S1132560253098470135F2E76C1000206C100020EC
S11325706C1000207010002003460244934200D1E6
S1132580704703F8011BF9E7034613F8012B002AEF
S1132590FBD1181A01387047FEE700BFF8B500BF39
S11325A0F8BC08BC9E467047F8B500BFF8BC08BC30
S11325B09E4670470101050707030402030204064F
S11325C005060D0E0E0E0D0D0D0D0E0E0E0E0D0D3F
S11325D001010507070304020302040605060F10A0
S11325E010100F0F0F0F101010100F0F010105071F
S11325F00703040203020406050611121212111144
S1132600111112121212111101010507070304021C
S1132610030204060506131C1C1C131313131C1CB1
S11326201C1C131300010507060203010302040620
S113263004051D1E1E1E1D1D1D1D1E1E1E1E1D1DF0
S113264000010507060203010302040604051F2016
S113265020201F1F1F1F202020201F1F01010507EE
S11326600703040203020406050621222222212173
S1132670212122222222212107050201030604230B
S113268023232323232307050201030604242424EC
S113269024242424070502010306042525252525D1
S11326A025250705020103060426262626262626B6
S11326B00001070206272727272700000000000043
S11326C00000131211100F0E0D0C00000000212544
S11326D0242601010304040203020D0E0D0D0E0D48
S11326E00E0E01010304040203020F100F0F100F5A
S11326F0101001010304040203021112111112113A
S113270012120101030404020302131C13131C1309
S11327101C1C00010203040103021D1E1D1D1E1DBD
S11327201E1E00010203040103021F201F1F201F9D
S11327302020010103040402030221222121222179
S1132740222205070704040605060E0E0D0D0E0EC3
S11327500D0D050707040406050610100F0F1010D1
S11327600F0F0507070404060506121211111212B1
S1132770111105070704040605061C1C13131C1C71
S1132780131305070603040604051E1E1D1D1E1E45
S11327901D1D050706030406040520201F1F202015
S11327A01F1F0507070404060506222221212222F1
S11327B02121000000000011800200000000020638
S11327C00000200039000F000000401500204004E4
S11327D0001000223F0006005B044F0466046D04F1
S11327E07D0407007F046F0400000000000A00005D
S11327F080200000FFFF7704790A3900B0207900B7
S113280071007D04760406000E00700A3800B602DA
S1132810B6083F0073043F08730C6D0401113E00B9
S113282030223628802A6E040922390080080F00DD
S113283001000800000158107C0458005E04582070
S113284071040C0C740404000E00700C3800541451
S113285054045C04730467045004080C78001C00DE
S113286010201428802A0C08482000003F0006008D
S11328705B004F0066006D007D0007007F006F0065
S113288077007C0039005E00790071004000000090
S113289001000000030040000C00000000000000E4
S11328A00000000000010000000000000000070517
S11328B00000000000000000000000000001000112
S11328C00000000000000000000000000000000004
S11328D000000000000000000000000000000000F4
S11328E000000000000000000000000000000000E4
S11328F000000000000000000000000000000000D4
S113290000000000000000000000000000000000C3
S113291000000000000000000000000000000000B3
S113292000000000000000000000000000000000A3
S11329300000000000000000000000000000000093
S11329400000000000000000000000000000000083
S11329500000000000000000000000000000000073
S11329600000000000000000000000000000000063
S11329700000000000000000000000000000000053
S11329800000000000000000000000000000000043
S11329900000000000000000000000000000000033
S11329A00000000000000000000000000000000023
S11329B0010001000080000000010000010000018E
S11329C00100000039000010006000000000000059
S11329D000000000000000000000000000000000F3
S11329E000000000000000000000000000000000E3
S11329F000000000000000000000000000000000D3
S1132A0000000000000000000000000000000000C2
S1132A1000000000000000000000000000000000B2
S1132A2000000000000000000000000000000000A2
S1132A300000000000000000000000000000000092
S1132A400000000000000000000000000000000082
S1132A500000000000000000000000000000000072
S1132A600000000000000000000000000000000062
S1132A700000000000000000000000000000000052
S1132A800000000000000000000000000000000042
S1132A900000000000000000000000000000000032
S1132AA00000000000000000000000000000000022
S1132AB00000000000000000000000000000000012
S1132AC00000000000000000000000000000000002
S1132AD000000000000000000000000000000000F2
S1132AE000000000000000000000000000000000E2
S1132AF000000000000000010000000000000000D1
S1132B0000000000000000000000000000000000C1
S1132B1000000400020200000000000000000000A9
S1132B200000000000010000000001000102030099
S1132B30010000000000000005000000000000008B
S1132B400001030000000000010001004D4F444556
S1132B50300000004C494748540000004D4F4445A4
S10B2B60310000000C100020FC
S10B2B68B4D5FF7F0100000059
S1132B70809FD500006CDC02008000000000000093
S1132B800000000000000000000000000000000041
S1132B900000000000000000000000000000000031
S1132BA00000000000000000000000000000000021
S1132BB00000000000000000000000000000000011
S1132BC00000000000000000000000000000000001
S1132BD000000000000000000000000001010000EF
S1072BE0DD00000010
S9030621D5
