:100000000010002095010000910100009101000006
:100010009101000091010000910100009101000098
:100020009101000091010000910100009101000088
:100030009101000091010000910100009101000078
:100040009101000091010000910100009101000068
:100050009101000091010000910100009101000058
:100060009101000091010000910100009101000048
:100070009101000091010000910100009101000038
:100080009101000091010000910100009101000028
:100090009101000091010000910100009101000018
:1000A0009101000091010000910100009101000008
:1000B00091010000910100009101000091010000F8
:1000C00091010000910100009101000091010000E8
:1000D00091010000910100009101000010B5054C54
:1000E000237833B9044B13B10448AFF300800123E4
:1000F000237010BD6810002000000000E002000026
:1001000008B5034B1BB103490348AFF3008008BD9A
:10011000000000006C100020E0020000154B002BD6
:1001200008BF134B9D46A3F5803A00218B460F462E
:100130001348144A121A00F0BBF80F4B002B00D0E2
:1001400098470E4B002B00D0984700200021040058
:100150000D000D48002802D00C48AFF3008000F0DD
:1001600083F82000290000F04DF800F069F800BF86
:100170000000080000100020000000000000000047
:100180006810002084100020000000000000000023
:10019000FEE7000008B500F013F8064B0649074AD1
:1001A0008B4201D3FFF7BAFF52F8040F43F8040B58
:1001B000F6E700BF0010002068100020E4020000F5
:1001C000014A024B9A6070470000000000ED00E019
:1001D0000B4A536911699B0003F03C03C1F3811181
:1001E0000B438370136903F03F0343709369D26933
:1001F00003F0F003C2F3031213430370704700BF10
:10020000D0FF0FE007B501220A4B01A81A640A4B80
:10021000DC6CFFF7DDFFB4F1805F0AD39DF804309A
:10022000022B06D9054A136823F0500343F010034C
:100230001360FEE700000C40B081E00FC0800C406E
:1002400008B5074B044613B10021AFF30080054BFE
:100250001868836A03B19847204600F031F800BF60
:1002600000000000DC02000070B500250C4E0D4CB3
:10027000A41BA410A54209D100F024F800250A4EC1
:100280000A4CA41BA410A54205D170BD56F8253018
:1002900098470135EEE756F8253098470135F2E7E3
:1002A000601000206010002060100020641000200A
:1002B00003460244934200D1704703F8011BF9E75B
:1002C000FEE700BFF8B500BFF8BC08BC9E4670470B
:1002D000F8B500BFF8BC08BC9E467047001000206F
:0802E0003CFEFF7F010000005D
:1002E8000000000000000000000000000000000006
:1002F80000000000000000000000000000000000F6
:1003080000000000000000000000000000000000E5
:1003180000000000000000000000000000000000D5
:1003280000000000000000000000000000000000C5
:1003380000000000000000000000000000000000B5
:0803480001010000DD000000CE
:040000030000019563
:00000001FF
