S018000045464D33324C69676874436F6E74726F6C2E733337C6
S113000000100020950400009104000091040000F9
S11300109104000091040000910400009104000088
S11300209104000091040000910400009104000078
S1130030910400009104000091040000A514000044
S11300409104000051060000910400009104000096
S11300509104000091040000910400009104000048
S1130060910400009104000091040000790600004E
S11300709104000091040000910400009104000028
S11300809104000091040000910400009104000018
S11300909104000091040000910400009104000008
S11300A091040000910400009104000091040000F8
S11300B091040000910400009104000091040000E8
S11300C091040000910400009104000091040000D8
S11300D091040000910400009104000010B5054C47
S11300E0237833B9044B13B10448AFF300800123E0
S11300F0237010BD7410002000000000F4160000EE
S113010008B5034B1BB103490348AFF3008008BD96
S11301100000000078100020F4160000154B002B9E
S113012008BF134B9D46A3F5803A00218B460F462A
S11301301348144A121A01F0B3FA0F4B002B00D0E3
S113014098470E4B002B00D0984700200021040054
S11301500D000D48002802D00C48AFF3008001F0D8
S11301607BFA2000290001F03DFA01F061FA00BF9A
S11301700000080000100020000000000000000043
S113018074100020D81000200000000000000000BF
S113019010B501210B4800F0DDFC01210A4800F0F4
S11301A0D9FC00240AE0094800EBC401002304221E
S11301B0496810F8340001F011F80134012CF2DD23
S11301C0002010BD4081040000D20400CC160000C1
S11301D0012811D80A4B13F8302003EBC0035B68E5
S11301E00121994002EBC202930003F1804303F51D
S11301F0C0435961002070474FF0FF30704700BF83
S1130200CC160000012811D80A4B13F8302003EB58
S1130210C0035B680121994002EBC202930003F121
S1130220804303F5C0431961002070474FF0FF304D
S1130230704700BFCC160000012811D80A4B13F8F0
S1130240302003EBC0035B680121994002EBC2023A
S1130250930003F1804303F5C04399610020704784
S11302604FF0FF30704700BFCC16000010B5294C8A
S113027000222146104601F04FF8002221460120B9
S113028001F04AF800222146022001F045F800223C
S11302902146032001F040F800222146042001F009
S11302A03BF800222146052001F036F800222146C1
S11302B0062001F031F800222146072001F02CF835
S11302C00022FF21104601F071F80022FF210120D5
S11302D001F06CF80022FF21022001F067F80022EF
S11302E0FF21032001F062F80022FF21042001F025
S11302F05DF80022FF21052001F058F80022FF21BB
S1130300062001F053F80022FF21072001F04EF8E7
S113031010BD00BF00F00FF010B5314C4FF0FF32AC
S11303202146002000F0F8FF4FF0FF322146012063
S113033000F0F2FF4FF0FF322146022000F0ECFF04
S11303404FF0FF322146032000F0E6FF4FF0FF326A
S11303502146042000F0E0FF4FF0FF322146052043
S113036000F0DAFF4FF0FF322146062000F0D4FF00
S11303704FF0FF322146072000F0CEFF4FF0FF324E
S1130380FF21002001F012F84FF0FF32FF2101207D
S113039001F00CF84FF0FF32FF21022001F006F8C3
S11303A04FF0FF32FF21032001F000F84FF0FF323D
S11303B0FF21042000F0FAFF4FF0FF32FF21052057
S11303C000F0F4FF4FF0FF32FF21062000F0EEFFB3
S11303D04FF0FF32FF21072000F0E8FF10BD00BFFF
S11303E000F00FF010B504460121224800F0B2FBE2
S11303F00321214800F0CAFD4021204800F0B4FA4E
S1130400012000F083FD01211D4800F0A3FB1D4BDA
S11304109A6A00229A621C4800F044FF01210820D5
S113042000F06CFF0121102000F068FF0121802002
S113043000F064FF01214FF4807000F05FFF0121A0
S11304404FF4007000F05AFF34B9FFF70FFF0D4B63
S11304505B6E002BFBD110BD4FF4402000F0F0FF89
S11304604FF4803000F03CFF084AD36F43F0080398
S1130470D367EAE7D0433E0002001E0080002A0052
S113048000362C0000A00840DC16000000800C4060
S1130490FEE7000010B500F095F8074B074C19462D
S11304A0074A04E010680860043304310432A342AC
S11304B0F8D3FFF733FE00BF0010002074100020B3
S11304C0FC16000000487047006CDC02264BDB6A17
S11304D003F47053B3F5805F3DD0B3F5005F15D0DE
S11304E0B3F5006F1CD0204BDB6803F4E063B3F575
S11304F0007F27D017D9B3F5806F2FD0B3F5A06F45
S11305001CD0B3F5407F1BD0002001E0174B1868C6
S1130510154B1B68C3F382330133B0FBF3F0704710
S1130520134B1868F4E77BB1B3F5807FECD1114B22
S1130530DB6CB3F1985F13D30F48E9E70F48E7E7A3
S11305400F48E5E70F48E3E70A4BDB6CB3F1985F2C
S113055008D30D48DCE74FF40040D9E70B48D7E750
S11305600B48D5E70B48D3E700800C400810002067
S113057004100020B081E00F40B56400003FAB01DF
S1130580809FD500C0D8A700804F1200406F400163
S1130590C0CF6A0040420F0008B5FFF797FF044B35
S11305A05B6803F00F03D840024B186008BD00BF1E
S11305B000800C4000100020014B1868704700BFF9
S11305C004100020014A024B9A60704700000000AA
S11305D000ED00E04FF4004070474FF47A7070472C
S11305E0014B1868704700BF0810002010B504467E
S11305F07CB194FAA4F0B0FA80F0C2B20123934023
S113060024EA0304034B53F82230002BF0D098471C
S1130610EEE710BD90100020054B4FF40062C3F8C4
S113062080211A600222C3F880211A60704700BF3B
S113063000E100E038B504460D4600F089FD034BA7
S113064043F8245000F088FD38BD00BF901000200E
S113065008B5084BD3F81001D3F81421104020F446
S11306602A5020F02A004004400CC3F81C01FFF774
S1130670BDFF08BD0060004008B5084BD3F8100169
S1130680D3F81421104020F4AA4020F055000004AF
S1130690000CC3F81C01FFF7A9FF08BD006000406F
S11306A0104BDB6CC3F307434A2B07D0792B05D0DF
S11306B0482B01D0002070470B4870470B4A136940
S11306C01B0203F47C53916901F0F0010B43D269DE
S11306D0C2F303121343B3F5017F01D304487047F7
S11306E001487047B081E00F0048E801D0FF0FE0F7
S11306F000366E0110B50446FFF7D2FFA0420BD3BB
S113070000210A460A4B1A600A4A536823F480738C
S113071043EA0123536010BDFFF7C2FFB4EB400F5F
S113072002D902210122EDE701210A46EAE700BFCE
S11307307800904300800C40014B1868704700BF5C
S113074078009043184B5B6903F4E063B3F5007FD2
S113075018D00AD9B3F5C06F1DD0B3F5E06F18D027
S1130760B3F5407F07D000207047B3B1B3F5807F65
S1130770F9D10E4870470E4BDB6CB3F1985F0ED382
S11307800C4870470A4BDB6CB3F1985F09D30A48F5
S113079070470A4870470A4870470A4870470A4831
S11307A070470A48704700BF00800C40C0D8A700BB
S11307B0B081E00F804F120040B56400406F4001EB
S11307C0003FAB01809FD50040420F00C0CF6A00BC
S11307D0134B5B6803F00703012B03D9042B01D0EF
S11307E0012300E000230F4A904208D9A3B1052158
S11307F00B4A536823F007030B43536070470A4ABC
S113080002440A498A4202D843B10321F0E70BB9F2
S11308100021EDE70221EBE70421E9E70121E7E705
S113082000000C400048E801FFDB0BFFFF23F4004D
S113083010B5074BDC6B41F67132DA63FFF742FE09
S11308400021FFF7C5FF14B1014B0022DA6310BD8C
S113085000000C4010B5064BDC6B41F67132DA63D4
S1130860FFF7B6FF14B1024B0022DA6310BD00BFDC
S113087000000C40C0F30313013B0C2B66D8DFE8E7
S113088003F00765650D656514234E6565651B00FA
S1130890304B1868C0F38230013070472D4B9B6891
S11308A003F00F030120984070472A4B5B6803F064
S11308B00F03012098407047264B5868C0F300206E
S11308C0431C012098407047234B984218D00CD900
S11308D0224B98421BD0224B984239D11D4B9B6E20
S11308E003F00303012098407047A3F58223984244
S11308F02ED1184B9B6EC3F303130120984070470D
S1130900144B9B6EC3F30323012098407047114B93
S1130910986EC0F30130031D012098407047114BBD
S1130920984205D003F50433984208D0012070475B
S1130930084B1B6F03F00303012098407047054BDD
S11309401B6FC3F3011301209840704701207047C7
S11309500120704700800C408026160080002A0089
S113096080062E0090071A0010B50C46C0F303133E
S1130970013B0C2B17D8DFE803F0071616171616E1
S11309802E4AAF16161622004C1EFFF751FF6C4A72
S1130990136823F4E03343EA84341460FFF7FCFD66
S11309A00021FFF757FF10BDB1FA81F4C4F11F0312
S11309B0634A946824F00F041C439460F3E7B1FA8B
S11309C081F4C4F11E035E4A546824F4807444EA3A
S11309D003245460E7E7FFF72BFFFFF7DDFDB0FBCF
S11309E0F4F0FFF787FEB4FA84F4C4F11F03544A09
S11309F0546824F00F041C435460FFF7CDFD0446F3
S1130A000021FFF727FF2046FFF774FECBE74D4B8D
S1130A10984235D01AD94C4B984247D04B4B984208
S1130A20C1D1474B5B6D13F0010F04D1444B1B6DD7
S1130A3013F0040FFAD1B4FA84F4C4F11F04404A49
S1130A40936E23F0030323439366ACE7A3F5822359
S1130A509842A8D13A4B5B6D13F0010F04D1384B87
S1130A601B6D13F0040FFAD1B4FA84F4C4F11F041B
S1130A70334A936E23F0F00343EA0413936692E738
S1130A802F4B5B6D13F0010F04D12D4B1B6D13F035
S1130A90040FFAD1B4FA84F4C4F11F04284A936E03
S1130AA023F4706343EA042393667CE7244B5B6D71
S1130AB013F0010F04D1224B1B6D13F0040FFAD174
S1130AC0B4FA84F41E4A936E23F44053C4F11B0415
S1130AD043EA0433936666E71D4B98421AD003F544
S1130AE0043398427FF45FAF154B5B6D13F0010F35
S1130AF004D1134B1B6D13F0400FFAD1B4FA84F4F4
S1130B00C4F11F040E4A136F23F0300343EA0414A4
S1130B10146748E70A4B5B6D13F0010F04D1084BCF
S1130B201B6D13F0400FFAD1B4FA84F4C4F11F041E
S1130B30034A136F23F003032343136733E700BF10
S1130B4000800C408026160080002A0080062E00BB
S1130B5090071A0038B504460D46C0F30323013B41
S1130B60092B2DD8DFE803F00518082C2C0F122CC4
S1130B702C150022134B11E0FFF70EFDFFF7BAFD11
S1130B800022114B0AE00122104B07E01022104B07
S1130B9004E000220F4B01E000220F4BC4F30434A5
S1130BA042B10E49496D11F0010F03D10B49096D92
S1130BB00A42FBD103F1047304EBC304A4002560CF
S1130BC038BD00BF08800C4040800C4058800C4069
S1130BD060800C4078800C4044800C4000800C40C5
S1130BE000F00F00013806285FD8DFE800F0041792
S1130BF02C5E5E414B00354BDB6A03F47053B3F556
S1130C00805F54D0B3F5005F04D0B3F5006F03D018
S1130C100520704702207047042070472B4B9B6AC5
S1130C2003F00303022B44D0032B0AD0012B06D07C
S1130C30264B9B6A13F4803F3DD10120704703206B
S1130C40704706207047214B9B6A03F00C03082B66
S1130C5033D00C2B0AD0042B06D01C4B9B6A13F404
S1130C60801F2CD101207047032070470620704755
S1130C70164B1B6813F0805323D00BB90120704727
S1130C8009207047114BDB6A03F46033B3F5803FEE
S1130C9019D0B3F5003F06D0B3F5004F01D00120C1
S1130CA070470920704703207047002070470320D5
S1130CB07047022070470A207047022070470A20BC
S1130CC07047072070470220704700BF00800C4027
S1130CD010B50446FFF784FF1D4B9C4208D01D4B02
S1130CE09C420AD0032830D8DFE800F01B0C0F1216
S1130CF0194B986A00F00300F4E7174B986AC0F3A5
S1130D008100EFE7FFF766FC10BDFFF769FCFBE726
S1130D10FFF742FC0446FFF70FFD013024FA00F010
S1130D20F2E70B4B9C4202D00A4B9C42ECD10A4B9B
S1130D309A6A074B9C4206D0142332FA03F3E3D099
S1130D40FFF74BFCE0E71023F7E70020DCE700BFE8
S1130D5002001E000300200000800C4008B5074874
S1130D60FFF73EFF072804D0092805D1FFF7AEFBA3
S1130D7008BDFFF7E7FCFBE70020F9E706000E00DB
S1130D8008B50A48FFF72CFF032808D0092809D022
S1130D90022801D0002001E0FFF722FC08BDFFF784
S1130DA019FCFBE7FFF792FBF8E700BF07232600D7
S1130DB038B500F47813B3F5D01F00F092800546DF
S1130DC017D9B3F5181F00F098802BD9B3F5301F4D
S1130DD06BD039D9B3F5381F76D0B3F5781F13D15A
S1130DE0FFF7DAFB04462846FFF744FDB4FBF0F0B6
S1130DF039E0B3F5602F7DD008D8B3F5003F3BD080
S1130E00B3F5802F30D063B300202CE0B3F5901FEE
S1130E1039D0B3F5B01F3FD0B3F5801FF4D1FFF73D
S1130E2091FC20E0B3F5F01F29D0B3F5001F54D096
S1130E30B3F5E01FE8D13248FFF74AFF314B1B6F8F
S1130E40C3F30113D8400EE0B3F5281FDCD12E48BC
S1130E50FFF73EFF2B4B9B6EC3F301330433D840A3
S1130E6001E0FFF733FB38BDFFF730FB254B9B68F0
S1130E7003F00F03D840F6E7FFF78EFBF3E72248B1
S1130E80FFF726FFEFE72048FFF722FF1D4B9B6E7D
S1130E90C3F30313D840E6E71B48FFF719FF194BC8
S1130EA09B6EC3F30323D840DDE71748FFF710FF19
S1130EB0144A936EC3F30133D840D36F03F007038E
S1130EC00133B0FBF3F0CEE70F48FFF701FF0D4B02
S1130ED09B6E03F00303D840C5E70948FFF7F8FE0B
S1130EE0C1E70748FFF7F4FE064B1B6F03F003034B
S1130EF0D840B8E7FFF732FFB5E7FFF741FFB2E7A5
S1130F000300200000800C4002001E00064B9B6D75
S1130F1013F0080F07D100F00703034AD06F20F045
S1130F2007001843D067704700800C4010B40428B1
S1130F3026D8DFE800F00F0B150307000224012375
S1130F40184610E02024102305200CE080244023C0
S1130F50072008E04FF400744FF48073092002E086
S1130F6008240423032049B106490B6242B1064B0D
S1130F7003449B001B68002BF9D001E0014B1C6269
S1130F8010BC704700800C406001E41010B500F004
S1130F900F04631E062B46D8DFE803F004464645DB
S1130FA04598A800023903293DD8DFE801F0022959
S1130FB005210020042425E0FFF772FB0130FFF730
S1130FC099FBFFF7F9FA5F4B984207D95E4A136819
S1130FD043F0600313600220044613E05A4A136886
S1130FE023F0600343F0200313600220044609E069
S1130FF0FFF756FB0130FFF77DFB0320012401E0DE
S11310000120032401221146FFF790FFFFF710FC93
S11310104D4B5C62FFF7C0FA0446FFF76BFB0021FF
S11310202046FFF717FC10BD01390929FBD801A39D
S113103053F821F05D1000006310000073100000ED
S11310402710000027100000831000002710000064
S11310502710000027100000971000000021084608
S11310601BE0012211460020FFF760FF002102204F
S113107013E0012211461046FFF758FF002101201A
S11310800BE0FFF789FAFFF735FB304B01221A60BA
S11310900021032001E001210020022C0BD02A4C66
S11310A0A36A23F4801323F00C0343EA800343EA86
S11310B00153A362B7E7244CA26A22F4803222F0DF
S11310C00302024342EA0142A262ACE7072907D0C5
S11310D00929A8D11C4A136843F080531360A2E77E
S11310E0194A136823F0805313609CE7032911D035
S11310F009291DD0022996D1012211460020FFF7AB
S113110015FF114B40225A620F4BDB6A13F4803FE8
S1131110FAD088E7012211461046FFF707FF0A4B71
S113112060225A62084BDB6A13F4003FFAD07AE774
S1131130054B20225A62044BDB6A13F4004FFAD0A9
S113114071E700BF0048E80100800C40100890439C
S1131150EFF3108072B6704700B962B670470000B2
S113116030B4072A22D9A2F10801890007248C404F
S11311708840144D296821EA040108432860124973
S1131180114489000B60114B13449B009DF8081017
S11311901960012393400E49C1F81C310D4B1344CF
S11311A09B009DF80C201A6030BC70479500072105
S11311B001FA05F4A840084D296821EA040108430E
S11311C02860DCE704610040400883106008831055
S11311D0006000408008831000610040F0B41446B1
S11311E052B173B301258D4000EBC006B20002F189
S11311F0804202F5C042156107292DD8284EC5004A
S11312002F18BA00324452688F004FF00F0C0CFABA
S113121007FC22EA0C0204FA07F73A430544AF003C
S11312203E4472605CB97BBB012303FA01F100EB1D
S1131230C000830003F1804303F5C0435961F0BC4F
S1131240704701258D4000EBC006B20002F18042D8
S113125002F5C0425561CFE7114FC6003518AA0008
S11312603A44956801F18042083A92004FF00F0C1D
S11312700CFA02FC25EA0C0504FA02F22A4335189A
S1131280AE003744BA60CDE7012303FA01F100EB65
S1131290C000830003F1804303F5C0431961CEE726
S11312A0006000400D4A5368116821F0010111608B
S11312B023F4830323F01F0341680B43017A0B4398
S11312C0417A1943C3681943038A0B435360037873
S11312D01BB1136843F001031360704700A008407A
S11312E0054B5B6823F48033B0F5803F01D143F4B0
S11312F08033014A5360704700A0084029B9054A69
S1131300936823EA000090607047024B9A68104388
S11313109860704700A00840072844D8DFE800F030
S1131320040B12192029323B1F4B186C42400A400F
S113133042401A6470471C4B586C42400A40424079
S11313405A647047184B986C42400A4042409A6471
S11313507047154BD86C42400A404240DA647047EB
S1131360114BD3F8CC0042400A404240C3F8CC2091
S113137070470D4BD3F8D00042400A404240C3F8B6
S1131380D0207047084BD3F8D40042400A40424072
S1131390C3F8D4207047044BD3F8D80042400A4025
S11313A04240C3F8D820704700A00840072844D81A
S11313B0DFE800F0040B12192029323B1F4B186D93
S11313C042400A4042401A6570471C4B586D4240E7
S11313D00A4042405A657047184B986D42400A4093
S11313E042409A657047154BD86D42400A404240CE
S11313F0DA657047114BD3F8B40042400A404240CA
S1131400C3F8B42070470D4BD3F8B80042400A40EB
S11314104240C3F8B8207047084BD3F8BC004240A0
S11314200A404240C3F8BC207047044BD3F8C000C4
S113143042400A404240C3F8C020704700A0084020
S1131440034A536823F4E01318435060704700BF05
S113145000A008400B4A53699B0003F03C03116948
S1131460C1F381110B438370136903F03F0343708D
S1131470936903F0F003D269C2F3031213430370B8
S1131480704700BFD0FF0FE008B5092802D00A2832
S113149004D008BD0120FEF7CFFEFAE70020FEF7D6
S11314A0CBFEF6E7024A136801331360704700BFAE
S11314B0D4100020034B1A68024B1B689B1A83420A
S11314C0FAD37047D410002010B582B00121164819
S11314D0FFF740FBFFF7A0F8002301220921104683
S11314E0FFF77CFE002301220A211046FFF776FE57
S11314F00E4C21460920FFF79DF821460A20FFF7EC
S113150099F80124019400940023092211462046ED
S1131510FFF726FE0194009400230A221146204678
S1131520FFF71EFE02B010BD00D2040089140000B3
S113153010B582B0244B01221A64244BDC6C240EB7
S113154001A8FFF787FF0F2C0AD99DF80430022B5E
S113155006D91F4A136823F0500343F010031360A5
S1131560FFF7B2FF1B48FFF723FC1B4AA2FB002333
S11315709B09013BB3F1807F00D3FEE7174A536018
S1131580174BE02183F82310002494600723136091
S11315902046FEF727FFFEF7FBFD2046FEF732FE4E
S11315A00120FEF72FFEFEF7B7FE4FF47A70FFF727
S11315B081FFFEF75BFE2046FEF70AFE0120FEF7E0
S11315C007FE02B010BD00BF00000C40B081E00F68
S11315D0C0800C4070000200D34D621010E000E0A7
S11315E000ED00E008B504E0FFF7A2FF0F4B012275
S11315F01A700E4B1B78042B14D801A252F823F056
S1131600E9150000F3150000151600001D16000072
S1131610F3150000054B03221A70EAE7034B01227D
S11316201A70E6E7014B04221A70E2E7D01000209A
S113163008B5074B044613B10021AFF30080054BF6
S11316401868836A03B19847204600F031F800BF58
S113165000000000F016000070B500250C4E0D4C83
S1131660A41BA410A54209D100F024F800250A4EB9
S11316700A4CA41BA410A54205D170BD56F8253010
S113168098470135EEE756F8253098470135F2E7DB
S11316906C1000206C1000206C10002070100020D2
S11316A003460244934200D1704703F8011BF9E753
S11316B0FEE700BFF8B500BFF8BC08BC9E46704703
S11316C0F8B500BFF8BC08BC9E4670470400000093
S11316D002000000040000000300000001000000FC
S11316E0030040000C0000000000000000000000A7
S10716F00C100020B6
S10B16F428EAFF7F0100000059
S11316FC809FD500006CDC0200800000000000001C
S113170C00000000000000000000000000000000C9
S113171C00000000000000000000000000000000B9
S113172C00000000000000000000000000000000A9
S113173C0000000000000000000000000000000099
S113174C0000000000000000000000000000000089
S113175C0000000000000000000000000101000077
S107176CDD00000098
S903049563
